:020000040800F2
:100000008007002091010008D7120008010D0008A8
:10001000D31200083D0500080B1B0008000000007B
:10002000000000000000000000000000B5160008FD
:100030004105000800000000B5130008FF16000885
:10004000A7010008A7010008A7010008A7010008F0
:10005000A7010008A7010008A701000895050008EE
:10006000A7010008A7010008A7010008A7010008D0
:10007000A7010008A7010008A7010008A7010008C0
:10008000A7010008A7010008A7010008A7010008B0
:10009000A7010008A7010008A7010008A7010008A0
:1000A000A7010008A7010008A7010008A701000890
:1000B00001170008A701000800000000A7010008C0
:1000C000A70100080000000000000000A7010008D0
:1000D00000000000251A0008A70100080000000029
:1000E000A7010008A7010008A701000800F002F816
:1000F00000F03FF80AA090E8000C82448344AAF183
:100100000107DA4501D100F034F8AFF2090EBAE880
:100110000F0013F0010F18BFFB1A43F0010318473B
:10012000782D0000982D0000103A24BF78C878C1BF
:10013000FAD8520724BF30C830C144BF04680C60ED
:10014000704700000023002400250026103A28BF35
:1001500078C1FBD8520728BF30C148BF0B60704739
:10016000642900F07B80002070471FB51FBD10B5CB
:1001700010BD00F02AF91146FFF7F7FF01F038FD36
:1001800000F048F903B4FFF7F2FF03BC01F0BFFC35
:1001900008480047FEE7FEE7FEE7FEE7FEE7FEE76A
:1001A000FEE7FEE7FEE7FEE703480449044A054B85
:1001B00070470000ED00000880010020800700204B
:1001C0008003002080030020704700000FB41CB59E
:1001D000074B06AA7B4469460090059800F0DDF8BD
:1001E0000020694600F0ECF81CBC5DF814FB000030
:1001F000E90100002DE9F0410E460446002020628E
:100200002046E168884730B3252805D0D4E901218C
:100210009047206A401CF2E7E168204600278847A3
:10022000050018D0A5F14100192802D820354FF457
:1002300000673246294620462760FFF791FF40B10C
:10024000012804D0F61D26F007060836D8E7361D2B
:10025000D6E72846DAE7206ABDE8F0812DE9F041CB
:100260000646002410687529314616A510D0AFF354
:100270000080002802DA404213A507E031688A07AF
:1002800001D512A502E0490704D511A5012401E01A
:10029000AFF3008000210A2206F1240709E0B0FB39
:1002A000F2FCB0FBF2F302FB1C003030785418462D
:1002B000491C0028F3D123462A463046BDE8F041C8
:1002C00000F00CB8000000002D0000002B00000022
:1002D0002000000070477047704770472DE9F047D5
:1002E0000D4699469246044600F1240801688806A6
:1002F00004D5E06921F01001216000E00120A8424E
:1003000001DD471B00E00027A1697A1902EB090013
:10031000081AA0612078C00602D42046AFF30080FE
:10032000002608E0D4E901211AF806009047206A67
:10033000401C761C20624E45F4DB2078C0060AD5AE
:100340002046AFF3008006E0D4E901213020904739
:10035000206A401C2062381EA7F10107F4DC07E088
:10036000D4E9012118F805009047206A401C20625A
:10037000281EA5F10105F3DC2046AFF300802078AC
:10038000000602D50220BDE8F0870120FBE700004F
:1003900001694A1C02610878704700B58FB0CDE949
:1003A00001310021059105497944CDE90310114639
:1003B0006846FFF71FFF0FB000BD0000E5FFFFFF1D
:1003C0000A6802F8010B0A607047754600F028F8C9
:1003D000AE4605006946534620F00700854618B032
:1003E00020B5FFF7E1FEBDE820404FF000064FF0DA
:1003F00000074FF000084FF0000B21F00701AC465A
:10040000ACE8C009ACE8C009ACE8C009ACE8C00978
:100410008D4670470446AFF300802046FFF7B2FEDA
:10042000004870471C01002008B500F0D5FC0120F1
:10043000022309A21E2100900A2000F073FE002171
:1004400040F2E73001F0C8F96E21074801F095FA53
:1004500002200649087008BD50574DB5CDB5E7C616
:10046000BDD5BC3131250000000400402100002032
:100470000EB502201B49087000F0AEFC01200223DB
:1004800019A216210090002000F04CFE012002234A
:1004900017A2162100905A2000F044FE00F0F0FB55
:1004A0001DE000F0F5FB4FF40041124800F0D6FBD0
:1004B00000B915E0104811A1026801A8FFF786FEF7
:1004C0000120022301AA16210090302000F02AFE0C
:1004D0004FF40041074800F0C1FB00B900E0E0E73D
:1004E00000BF0EBD21000020D6CAC1BFCEAA0000A9
:1004F00067000000000C01403C0000202564000063
:1005000008B500F069FC0120022307A21E2100901B
:100510000A2000F007FE45F6C051632001F014F9EF
:1005200002200549087008BDC2F6B3E5D5FDD4DA4E
:10053000B7A2C9FA000000002100002000BFFEE7BA
:1005400070472DE9F04180460F46164600240025ED
:100550003946404600F036FE00BF06E0705D00F010
:1005600071FE681CC5B2601CC4B2102CF6DB07F12A
:100570000800C1B2404600F025FE002406E0705D90
:1005800000F060FE681CC5B2601CC4B2102CF6DB23
:10059000BDE8F08138B5012000F0B4FB0446012C21
:1005A00049D19E480078032813DA9D480078012835
:1005B0000FD1002000F070FE98480078401C974949
:1005C000087098480A461278815C974A0420FFF721
:1005D000B8FF9348007802282CD190480078012871
:1005E000FAD192480068642824D9904800680A38F3
:1005F0008E490860084600680A21B0FBF1F52A46DA
:100600008BA18C48FFF7E2FD01200223894A1E21BD
:100610000090622000F086FD8448008881B2864800
:1006200001F0ABF90120022384A21E210090732067
:1006300000F078FDEEE0022C4BD1784800780128DC
:1006400013DD7748007801280FD1002000F024FE48
:1006500072480078401E7149087072480A46127844
:10066000815C714A0420FFF76CFF6D480078022816
:10067000E0D16A4800780128DCD16C48006840F27B
:10068000DE318842D6D2694800680A30674908607E
:10069000084600680A21B0FBF1F52A4664A16548C6
:1006A000FFF794FD01200223624A1E210090622080
:1006B00000F038FD5D48008881B25F4801F05DF9C7
:1006C000012002235DA21E210090732000F02AFD6C
:1006D000A0E0032C14D151480078032802D1FFF781
:1006E000C7FE97E04D480078022802D1FFF708FFC7
:1006F00090E04A48007801289CD1FFF795FE89E0F8
:10070000042C97D145480078032822D100F064FBDF
:10071000012002234AA2042100901E2000F002FDC5
:100720000120022349A2182100901E2000F0FAFCAB
:100730000120022348A2302100901E2000F0F2FC8C
:10074000394A30210420FFF7FCFE032033490870AA
:100750005DE03248007802282BD100F03DFB0022FA
:100760000121880701F0A0F801213E4800F081FA3C
:100770000120022332A2042100901E2000F0D2FCAE
:100780000120022331A2182100901E2000F0CAFC93
:100790000120022330A2302100901E2000F0C2FC74
:1007A000214A18210420FFF7CCFE02201B490870C3
:1007B0002DE01A480078012829D100F00DFB4FF4F4
:1007C0007A711D4801F0D9F86E201849086001209F
:1007D00002231BA2042100901E2000F0A3FC012094
:1007E00002231AA2182100901E2000F09BFC012079
:1007F000022319A2302100901E2000F093FC0A4A27
:1008000004210846FFF79DFE0120044908700120DD
:1008100003490870022000F051F838BD2000002084
:100820002100002022000020772E00082800002050
:10083000256400002C00002000040040250000007A
:10084000B5E7BBFA50574DB5F7CBD900C2F6B3E5C3
:10085000B5E7B4C5B7A700004144D6CAC1BFB2C905
:10086000BCAF0000000801400EB50121084600F0B1
:10087000B3FD022000F028F80121002000F0FAF872
:100880000220019000208DF808000C208DF809004E
:1008900001208DF80A0001A800F01EF807208DF84D
:1008A000000000208DF801008DF8020001208DF875
:1008B0000300684600F032FD0EBD000001490860EB
:1008C0007047000014040140024909680143014ACD
:1008D0001160704710040140002123498279002AE9
:1008E0003AD00A46126803689A430B461A600A1DFA
:1008F000126803689A430B1D1A60027911440A6852
:1009000003681A430A60184A0832126803689A4357
:10091000154B08331A601A1D126803689A43124B6C
:100920000C331A604279102A0ED11A1F126803681C
:100930001A430D4B08331A601A1D126803681A43D4
:10094000094B0C331A600DE00749427911440A68DB
:1009500003681A430A6005E0027911440A680368D3
:100960009A430A6070470000000401400549096885
:1009700021F01001034A116011460968014311601A
:10098000704700000020024001460020034A106822
:1009900000F038000843106070470000002002405B
:1009A0001FB50121092000F017FD01212C4800F09E
:1009B0000DF901212B4800F009F940F21B10ADF8A8
:1009C0000C0010208DF80F0003208DF80E0003A9F5
:1009D000254800F06FF80020244908600121082014
:1009E00000F0FAFC4FF47040ADF8080048208DF894
:1009F0000B0003208DF80A0002A91B4800F05AF8EA
:100A00000121052000F0E8FC0220ADF80400482098
:100A10008DF8070003208DF8060001A9144800F0A6
:100A200049F80121042000F0D7FC4020ADF8000077
:100A300010208DF8030003208DF8020069460C4851
:100A400000F038F88020ADF8000004208DF8030095
:100A500003208DF802006946054800F02BF81FBD01
:100A60000004300000023000000C0140A08121424F
:100A70000008014030B500228B071C0F0F2303FA3A
:100A800004F20B4B8C1053F824309343084C8D1018
:100A900044F8253023468C1053F824308C07240F5B
:100AA00000FA04F42343024C8D1044F8253030BD85
:100AB000080001402DE9F0410246002500260020F3
:100AC00000230024002791F803C00CF00F0591F8D3
:100AD00003C00CF0100CBCF1000F03D091F802C061
:100AE0004CEA050591F800C0BCF1000F31D0146844
:100AF00000202BE04FF0010C0CFA00F3B1F800C01D
:100B00000CEA03069E4220D183004FF00F0C0CFA32
:100B100003F7BC4305FA03FC4CEA040491F803C054
:100B2000BCF1280F06D14FF0010C0CFA00FCC2F802
:100B300014C00AE091F803C0BCF1480F05D14FF092
:100B4000010C0CFA00FCC2F810C0401C0828D1D3DC
:100B50001460B1F800C0BCF1FF0F34DD5468002010
:100B60002EE000F1080C4FF0010808FA0CF3B1F880
:100B700000C00CEA03069E4221D183004FF00F0C07
:100B80000CFA03F7BC4305FA03FC4CEA040491F8A1
:100B900003C0BCF1280F05D100F1080C08FA0CF8CD
:100BA000C2F8148091F803C0BCF1480F07D100F1DE
:100BB000080C4FF0010808FA0CF8C2F81080401C2D
:100BC0000828CED35460BDE8F0810000F0B50A4695
:100BD000002300240021002500F00046B6F1004F5C
:100BE00002D11D4EF16901E01B4E7168C0F303454F
:100BF00083B200F44016B6F5401F08D121F07061B1
:100C0000154E766826F07066134F7E6012E000F491
:100C10008016B6F5801F06D1032606FA05F4A14317
:100C200041F0706106E0460D360103FA06F6B14365
:100C300041F0706122B1460D360103FA06F63143E8
:100C400000F00046B6F1004F02D1034EF16101E021
:100C5000014E7160F0BD000000000140024600201E
:100C600093680B400BB1012000E000207047416108
:100C700070470161704710B5FFF792FE10BD00008C
:100C800010B500F0D3FC0149086010BD3800002009
:100C900070B500F0CBFC164908600846006815499D
:100CA0000968401A124908600846006800281ADDE1
:100CB0000846006801F0CAF805460F4900F0E4FF55
:100CC000044601F0A3F80A4908600846006841F2AA
:100CD0008831884203DD01200849087006E00020C1
:100CE0000649087002E000200149086070BD00005C
:100CF0003C00002038000020000048434100002054
:100D000000BFFEE770B5044614B1012030490870F9
:100D10003DE00A2000F020FF4FF480512D48FFF7FE
:100D20009DFF08B9012516E04FF400512948FFF74F
:100D300095FF08B902250EE04FF480412548FFF7E2
:100D40008DFF08B9032506E04FF400412148FFF765
:100D500085FF00B9042500E018E04FF480511D48DC
:100D6000FFF77CFF90B94FF400511A48FFF776FF68
:100D700060B94FF480411748FFF770FF30B94FF466
:100D800000411448FFF76AFF0028E5D000BF104873
:100D90000078D8B14FF480510E48FFF75FFF00286C
:100DA000B7D04FF400510B48FFF758FF0028B0D0E0
:100DB0004FF480410748FFF751FF0028A9D04FF4B6
:100DC00000410448FFF74AFF0028A2D0284670BD22
:100DD0001E000020000C014070B5002415E004F155
:100DE000B001C8B200F004FA012000F001FA1020AE
:100DF00000F0FEF9002504E0002000F023FA681C52
:100E0000C5B2802DF8DB601CC4B2082CE7DB70BDD6
:100E100009E040F2375100BF0A00A1F1010399B285
:100E2000FAD1421E90B20028F3D1704770B5064641
:100E3000002415E004F1B001C8B200F0D9F9012096
:100E400000F0D6F9102000F0D3F9002504E0304678
:100E500000F0F8F9681CC5B2802DF8DB601CC4B244
:100E6000082CE7DB70BD000010B502213448FFF705
:100E700000FF08213248FFF7FAFE3220FFF7C8FFD3
:100E800008212F48FFF7F5FEAE2000F0B1F9002051
:100E900000F0AEF9102000F0ABF9402000F0A8F906
:100EA000812000F0A5F9CF2000F0A2F9A12000F0E8
:100EB0009FF9C82000F09CF9A62000F099F9A8201D
:100EC00000F096F93F2000F093F9D32000F090F95C
:100ED000002000F08DF9D52000F08AF9802000F084
:100EE00087F9D92000F084F9F12000F081F9DA20A7
:100EF00000F07EF9122000F07BF9DB2000F078F999
:100F0000402000F075F9202000F072F9022000F076
:100F10006FF98D2000F06CF9142000F069F9A4201D
:100F200000F066F9A62000F063F9AF2000F060F948
:100F30000020FFF77BFF0021084600F043F910BDB9
:100F4000000C01402DE9F05F82460F46904699461D
:100F5000DDF828B00024002501266CE000240126DD
:100F600011E019F8040018F80510884209D109EBBE
:100F70000400407808EB05014978884201D1260138
:100F800005E0A01CC4B219F804007F28E9DC00BF0A
:100F9000BAF1760F03DD4FF0000A781CC7B239466C
:100FA000504600F00FF9012E22D03946504600F08D
:100FB00009F9002407E01BF8060000F043F9701C53
:100FC00086B2601CC4B2102CF5DB07F10800C1B278
:100FD000504600F0F7F8002407E01BF8060000F088
:100FE00031F9701C86B2601CC4B2102CF5DB1CE019
:100FF000681CC5B23946504600F0E4F8002404E00D
:10100000002000F01FF9601CC4B2102CF8DB781C23
:10101000C1B2504600F0D6F8002404E0002000F0F1
:1010200011F9601CC4B2102CF8DB0AF1100000F0BA
:10103000FF0AA81CC5B218F8050000288ED1BDE82B
:10104000F09F2DE9F04704468846154699464FF033
:10105000000A002600271FE0E85D203800F0FF0AA4
:101060007E2C04DD002408F1010000F0FF08414659
:10107000204600F0A7F8002608E00AEB4A0109EB39
:101080004101885D00F0DEF8701CC6B2062EF4DB6C
:10109000A01DC4B2781CC7B2E85D0028DCD1BDE851
:1010A000F0872DE9F04706460F4690469946002501
:1010B0000024A24630E018F80A002038C5B2782E85
:1010C00002DD0026781CC7B23946304600F07AF8B7
:1010D000002406E009EB0511085D00F0B3F8601C80
:1010E000C4B2082CF6DB07F10800C1B2304600F0AC
:1010F00069F8002407E009EB05112144087A00F0A3
:10110000A1F8601CC4B2082CF5DB06F10800C6B2D9
:101110000AF1010000F0FF0A18F80A000028CAD1FD
:10112000BDE8F0872DE9FC470646884615469946F6
:101130000A9F002438E0285D7F2817DD285D8DF8A0
:101140000400281940788DF8050000208DF806006D
:101150001848194B01AA414600903046FFF7F2FEAD
:1011600006F11000C6B2A01CC4B21DE0285D8DF8C7
:10117000040000208DF80500012F09D10F4B01AAB2
:1011800041463046FFF78DFF06F10800C6B209E080
:10119000032F07D10A4B01AA41463046FFF751FF02
:1011A000B01DC6B2601CC4B2285D0028C3D1BDE822
:1011B000FC870000A72100083A21000887280008C2
:1011C000121F000870B504460D46B02101EBE50181
:1011D000C8B200F00DF8102141EA141000F008F830
:1011E00004F00F0141F0010000F002F870BD0000B2
:1011F00070B50446082510211148FFF738FD02217B
:101200000F48FFF734FD15E004F0800020B1012104
:101210000B48FFF72EFD03E001210948FFF727FDEA
:1012200002210748FFF725FD02210548FFF71FFDB2
:101230006006040E2800A5F10101CDB2E4D170BD15
:10124000000C014070B50446082510211148FFF735
:1012500010FD02210F48FFF70AFD15E004F08000A1
:1012600020B101210B48FFF704FD03E001210948EB
:10127000FFF7FDFC02210748FFF7FBFC02210548B0
:10128000FFF7F5FC6006040E2800A5F10101CDB2C0
:10129000E4D170BD000C014070B50646002415E095
:1012A00004F1B001C8B2FFF7A3FF0120FFF7A0FFD0
:1012B0001020FFF79DFF002504E03046FFF7C2FF36
:1012C000681CC5B2142DF8DB601CC4B2082CE7DB27
:1012D00070BD00BFFEE7704710B500214FF0006001
:1012E00000F05EF84FF4A06000F050F84FF0FF30CF
:1012F0000121002807DA0A07140E064A00F00F033E
:101300001B1FD45403E00A07130E034A135400BFF3
:1013100010BD000018ED00E000E400E070B5002111
:1013200000230F22C47804B3154C246804F4E0644D
:10133000C4F5E064210AC1F10403CA40447804FA08
:1013400003F184781440214309010E4C0678A1551D
:10135000047804F01F050124AC4005786D11AD0040
:1013600005F1E025C5F8004109E0047804F01F0507
:101370000124AC40044D0678761145F8264070BD36
:101380000CED00E000E400E080E100E002490143F0
:10139000024A1160704700000000FA050CED00E001
:1013A000024A0A400243024B1A60704780FFFF1F47
:1013B00008ED00E07047000029B1064AD2690243F7
:1013C000044BDA6104E0034AD2698243014BDA61DB
:1013D000704700000010024029B1064A926902439A
:1013E000044B9A6104E0034A92698243014B9A617B
:1013F000704700000010024010B500F045F84FF4AF
:10140000803000F099F800F0F5F80446012C24D162
:101410001020FFF7ABFA0220FFF7B6FA002000F029
:101420007FF8002000F0BAF8002000F0ABF82105AA
:101430004FF4403000F0C4F8012000F0BBF800BFCA
:10144000392000F047F80028FAD0022000F0C6F852
:1014500000BF00F05DF80828FBD101210846FFF726
:10146000BBFF01210420FFF7B7FF01210820FFF790
:10147000B3FF01214FF49070FFF7AEFF0121480246
:10148000FFF7AAFF10BD00000F48006840F0010000
:101490000D490860084640680C4908400A49486000
:1014A000084600680A49084007490860084600687D
:1014B00020F4802008600846406820F4FE00486060
:1014C0004FF41F0088607047001002400000FFF8D2
:1014D000FFFFF6FE10B501460022002300204A114E
:1014E000012A02D1094C236806E0022A02D1074CE6
:1014F000236A01E0054C636A01F01F020124944055
:101500001C400CB1012000E0002010BD0010024082
:101510000248406800F00C007047000000100240D4
:1015200001460020034A506820F0F0000843506054
:1015300070470000001002401149096821F4803111
:101540000F4A11601146096821F480211160B0F53D
:10155000803F03D0B0F5802F0ED106E0084909681E
:1015600041F48031064A116007E00549096841F4F9
:10157000A021034A116000E000BF00BF70470000D7
:101580000010024001460020034A506820F4E06049
:1015900008435060704700000010024001460020E0
:1015A000034A506820F4605040EAC1005060704720
:1015B00000100240014908667047000000004242E6
:1015C00002460020044B586820F47C1042EA0103D4
:1015D0001843014B5860704700100240014600203C
:1015E000034A506820F00300084350607047000031
:1015F0000010024038B5002000900024002500BFF4
:101600003120FFF767FF05460098401C00900098C6
:10161000B0F5A06F01D0002DF2D03120FFF75AFFB6
:1016200008B1012400E00024204638BD70B5002434
:10163000002580211E48FFF71CFB40211C48FFF7B6
:1016400016FB00BF80211A48FFF708FB0028F9D1DC
:10165000012000F0A7FA002516E040211448FFF70A
:1016600008FB6400012000F09DFA40211048FFF7BC
:10167000FEFA80210E48FFF7F1FA00B1641C012048
:1016800000F090FA681CC5B2182DE6DB402108482E
:10169000FFF7EFFA84F40004012000F083FA402100
:1016A0000348FFF7E4FA012000F07CFA204670BD01
:1016B00000080140704740F6B8304FF0E021486123
:1016C0000846006940F0010008610846006940F0E2
:1016D000020008617047042808D14FF0E021096931
:1016E00041F004014FF0E022116107E04FF0E021EA
:1016F000096921F004014FF0E02211617047704741
:1017000010B50121880700F0BEF8B8B10C48006898
:10171000401C0B4908600121880700F0A5F8084823
:10172000006809280ADD0748006808B9012000E0C0
:1017300000200449086000200149086010BD000035
:10174000440000208001214230B585B005460C469A
:1017500001210420FFF740FE01210846FFF72CFE7F
:10176000ADF80C50ADF808400020ADF80E00ADF813
:101770000A0002A94FF0804000F002F90122114650
:10178000900700F091F81C208DF8040001208DF8DE
:10179000050002208DF8060001208DF8070001A841
:1017A000FFF7BCFD0120ADF8000010208DF803000C
:1017B00003208DF8020069460648FFF77BF90121F6
:1017C0000448FFF756FA0121880700F050F805B0E9
:1017D00030BD00000008014030B589B005460C4618
:1017E00001210220FFF7E8FD01210920FFF7F4FDA8
:1017F00001211A48FFF7EAF92020ADF8200018204F
:101800008DF8230003208DF8220008A91448FFF763
:1018100051F9ADF81850ADF814400020ADF81A0099
:10182000ADF8160005A90F4800F0AAF87020ADF831
:1018300004000120ADF806000020ADF80C0001A95D
:10184000084800F03BF80821064800F089F801211B
:10185000044800F00CF809B030BD000000081A0080
:10186000000C014000040040CA430282704721B1CD
:10187000028842F00102028004E002884FF6FE7303
:101880001A400280704730B5024600200023002431
:10189000158A05EA0103958905EA010413B10CB123
:1018A000012000E0002030BD1AB183890B43838101
:1018B00002E083898B4383817047000070B5002468
:1018C00000220023058C4FF6EF7635400584028C0C
:1018D0008388048B48F6FF752C404FF6FF452C405B
:1018E0000D884FF6FF7606EA05252C434FF6DF7587
:1018F0002A400D8906EA05152A434D8806EA051592
:101900002A43154DA84202D0144DA8421DD14FF6CE
:101910007F752A404D894FF6FF7606EA05152A4362
:101920004FF6BF752A408D8806EA05152A434FF603
:10193000FF352B404FF2FF752B408D8906EA850558
:101940002B43CD8906EA85052B4383800483CD880C
:101950000587028470BD0000002C01400034014066
:101960000A460021018B4FF2FF7319404FF6FF73B7
:1019700003EA02231943018370470187704700007F
:10198000002202881D4B98420ED01D4B98420BD06E
:10199000B0F1804F08D01B4B984205D01A4B9842AB
:1019A00002D01A4B984204D14FF68F731A404B88DD
:1019B0001A43174B984207D0164B984204D04FF663
:1019C000FF431A40CB881A4302808B8883850B889B
:1019D00003850A4B98420BD0094B984208D00E4B16
:1019E000984205D00D4B984202D00D4B984201D140
:1019F0000B7A03860123838270470000002C01408C
:101A0000003401400004004000080040000C004089
:101A1000001000400014004000400140004401401C
:101A20000048014010B540F225511D4800F03EF835
:101A300010B31B4800F064F8C4B21A48008800F4E0
:101A40000040C8B91748008800F4804060B10A2CF3
:101A500003D000201349088020E01248008840F499
:101A600000401049088019E00D2C06D10D4800886F
:101A700040F480400B49088010E00A480088C0F319
:101A80000D0009490C5407480088401C054908808E
:101A900008460088C72801DD0020088010BD00002E
:101AA00000380140500000205400002070B502466C
:101AB000002400230025002040F66A16B14200D120
:101AC00000BFC1F3421501F01F03012606FA03F31C
:101AD000012D02D19689334006E0022D02D1168AEB
:101AE000334001E0968A33400C12012606FA04F4D2
:101AF0001688344013B10CB1012000E0002070BD05
:101B000001468888C0F30800704700BFFEE7014621
:101B100000BF704710B56FF00400FFF7DCFD0A4806
:101B200000680A49B0FBF1F00949087008460078DE
:101B300000EB4001C1EBC0104FF6FF7101EAC0009D
:101B40000449088010BD00000000002000127A0047
:101B5000480000204A0000200146114A12884A43EA
:101B60004FF0E0235A6100229A611A46126942F04E
:101B700001021A6100BF4FF0E022106900F001027B
:101B80001AB100F48032002AF5D04FF0E022126939
:101B900022F001024FF0E0231A6100229A6170479F
:101BA0004A0000200146114A12784A434FF0E023D0
:101BB0005A6100229A611A46126942F001021A61C2
:101BC00000BF4FF0E022106900F001021AB100F4EA
:101BD0008032002AF5D04FF0E022126922F0010293
:101BE0004FF0E0231A6100229A61704748000020FC
:101BF00008B5FFF701FC4FF4A060FFF7C7FBFFF744
:101C00006BFBFEF731FEFFF736F8FFF754FDFFF7E9
:101C100081FFFFF729F9FFF7DFF80A20FFF79CFFA4
:101C2000012002230EA2042100901E20FFF77AFA61
:101C3000012002230DA2182100901E20FFF772FA46
:101C4000012002230CA2302100901E20FFF76AFA27
:101C50000C4A04210846FEF774FC00BFFEE70000B2
:101C6000B5E7BBFA50574DB5F7CBD900C2F6B3E58F
:101C7000B5E7B4C5B7A700004144D6CAC1BFB2C9D1
:101C8000BCAF0000772E00084FF47F0C1CEAD01286
:101C90001EBF1CEAD11392EA0C0F93EA0C0F00F05E
:101CA000858090EA010F48BF42F4807240F4000C36
:101CB00041F400002CF07F4120F07F4000B58142CC
:101CC000A2EB03020FF2081CACEB504EC0F1000077
:101CD0009EF800E04FEA4E0E00FB0EFC38BF4900B4
:101CE0004FEA2C1C02F5FA020CFB0EF34FEACE1E53
:101CF0004FEA112C4FEAC1210EEB635E42EB224208
:101D00000EFB0CFC4FEA1C5300FB03114FEA112C95
:101D10004FEA01310EFB0CFC4FEADC4C00FB0C11CE
:101D2000C14228BF09184CEB03335DF804EB10EBFC
:101D3000410143EBC250B2F57C0F38BF704729D543
:101D400012F0F00F1CBF00F1C04000F000407047DF
:101D5000008182838485868788898B8C8D8E8F9184
:101D60009293959697999A9C9D9FA0A2A3A5A7A8A8
:101D7000AAACAEB0B2B3B5B7B9BCBEC0C2C5C7C9D4
:101D8000CCCED1D4D7D9DCDFE2E6E9ECF0F3F7FA38
:101D9000FE0000004FEA400C0CF1807CBCF17E4F4D
:101DA00028BF7047B0F1C04000F0AEB890EA010F14
:101DB0000CEAD11348BF42F48072624538BF6345D4
:101DC00007D213F47F0F16D080EA010000F0004024
:101DD000704710B500F052F8097EFC3E00F005B8DF
:101DE00080EA010000F00040704780EA010000F046
:101DF000004000F089B812F47F0F04BF024870471A
:101E000080EA010000F080B80000C07FC10DD1F170
:101E10009E0206DB4FEA002343F0004323FA02F060
:101E20007047004207D54FEA4001B1F1FE4F02D2A0
:101E30004FF00000704710B500F020F84992248060
:101E4000002070476FEA20007047000010F000414A
:101E500048BF4042B0FA80F310FA03F2C3F19D0389
:101E60000BD051EAC35101EB1220530638BF704723
:101E700000F1010008BF20F0010070470EF1020ED2
:101E80002EF0030E5EF8044B244204D44FEA4102C4
:101E9000B2F17F4F11D84FEA4003B3F17F4F0CD816
:101EA0000ED14FEAD07CB2F17F4F0CEB4C0C0CF111
:101EB000020C08BF4CEBD17C04E04FF0080C01E0B1
:101EC0004FEAD17C0CEB4C0324FA03F404F0070432
:101ED000B4F1040C06D20EEB840CBDE810404CF0BB
:101EE000010C6047DFE80CF0070802024FF00040E9
:101EF000A0F5800010BD0846420018BFD2F18072E4
:101F000088BF00F0004010BDFF2141EAD050C0055D
:101F100070470000000000000000002F00000000DB
:101F20000700070000147F147F1400242A7F2A1260
:101F3000006264081323003649552250000005034F
:101F4000000000001C224100000041221C0000147F
:101F5000083E08140008083E0808000000A06000C1
:101F60000008080808080000606000000020100851
:101F70000402003E5149453E0000427F40000042BD
:101F800061514946002141454B31001814127F1020
:101F9000002745454539003C4A494930000171094F
:101FA000050300364949493600064949291E000003
:101FB00036360000000056360000000814224100AA
:101FC00000141414141400004122140800020151DA
:101FD000090600324959513E007C1211127C007FE3
:101FE00049494936003E41414122007F4141221C7E
:101FF000007F49494941007F09090901003E4149E3
:10200000497A007F0808087F0000417F41000020D6
:1020100040413F01007F08142241007F4040404082
:10202000007F020C027F007F0408107F003E4141C8
:10203000413E007F09090906003E4151215E007FB3
:10204000091929460046494949310001017F01012A
:10205000003F4040403F001F2040201F003F4038CD
:10206000403F00631408146300070870080700610C
:102070005149454300007F41410000552A552A55EA
:10208000000041417F000004020102040040404082
:102090004040000001020400002054545478007FA6
:1020A0004844443800384444442000384444487F7D
:1020B00000385454541800087E0901020018A4A4E2
:1020C000A47C007F080404780000447D40000040A8
:1020D00080847D00007F102844000000417F400084
:1020E000007C04180478007C080404780038444418
:1020F000443800FC242424180018242418FC007CF4
:102100000804040800485454542000043F4440206C
:10211000003C4040207C001C2040201C003C403003
:10212000403C004428102844001CA0A0A07C00448F
:1021300064544C44141414141414B5E7BBFAB5F7E2
:10214000CBD9C2F6B3E5B5E7B4C5B7A7D6CAC1BF08
:10215000B2C9BCAFC2F6B3E5CEAAD5FDD4DAB7A2F8
:10216000C9FAB5CDB5E7C6BDD5BCD6B5C9E8B5A5E4
:10217000BCDBB9ABC7EAD4AAD1AFC3BFB5E7B3D80C
:10218000D1B9BEADCEB3A1E3A94FD0CDBAC5B0E6AB
:10219000B1BECAA3D3E0BFD5BCE4B7B5BBD8CDCBE5
:1021A000B3F6B3C2EABF000000F888888888FF88C9
:1021B000888888F800000000001F080808087F8849
:1021C0008888889F80F0001010D0FF901000FE02D9
:1021D0000202FE00000000040300FF0083601F00F5
:1021E00000003F404078004042CC0000FE829292C6
:1021F000FE929282FE000000003F10887F001E12B7
:1022000012125E807F0000404042CC0004F494949F
:10221000FF9494F40400000040201F2048444241F1
:102220005F41424448400000FE2222FE004048C870
:1022300009FAE440201000807F0282FF20100C4346
:10224000807F000718200000020CC000F010101062
:10225000FF101010F0000002027F00000F040404C1
:10226000FF0404040F00000000F888888888FF88B5
:10227000888888F800000000001F080808087F8888
:102280008888889F80F00084E45CC40008C8398E88
:102290000808CC3B880800003F103F00635A46E125
:1022A00000635A46E1000000F88142E09A82FA4257
:1022B0004A524202FE000000FF00007F0020130C83
:1022C000142378807F00000000FE121292929292F6
:1022D000FF91919191100080601F80805F402010DD
:1022E0000E1010205F8000202020BEAAAAAAAAAA51
:1022F000AAAABE20202000008080AFAAAAAAFFAA16
:10230000AAAAAF808000000000041464040CB40288
:102310000242330200000040412111090503FF037E
:1023200005091121414000201008FC57545455FE66
:102330005454545404000044442427150D05FF054B
:102340000D15252545440000FE2222FE004048C808
:1023500009FAE440201000807F0282FF20100C4325
:10236000807F000718200000020CC000F010101041
:10237000FF101010F0000002027F00000F040404A0
:10238000FF0404040F00000020222C2020E03F2046
:10239000202020E0000000804020100806010001FD
:1023A0004680403F000000000202C2020202FE829C
:1023B000828282820200004040407F4040407F4055
:1023C00040404040404000080888C8380C0B0808CE
:1023D000E8080808080800020100FF4041414141A7
:1023E0007F4141414140000000181610D0B897903D
:1023F000909092941000000020108C838041462819
:10240000102844438080008040301E101010FF10C0
:1024100010101010100000404042424242427F42E1
:1024200042424242404000008060F80700FC848441
:1024300084FE8283828000010000FF0000FF4020B4
:1024400000418E3040F8000000F888888888FF88B6
:10245000888888F800000000001F080808087F88A6
:102460008888889F80F00000020212620202FE0249
:102470000242320202000001010101010101FF01DB
:102480000101010101010000000000000000FF083F
:10249000080808080808000000FF41414141414187
:1024A000414141FF0000002030AC63300088C8A8E3
:1024B000998E88A8C8880022672212128040300FA7
:1024C00000003F40407100008060F80704E4A4A4CD
:1024D000BFA4A4E4040000010000FF40407F4A4A7A
:1024E0004A4A4A7F404000404042CC0040A09E8281
:1024F00082829EA02020000000003F908840432C54
:10250000102846418080000000F8494A4C48F848AD
:102510004C4A49F800000010101312121212FF1258
:1025200012121213101000008060F8074020900C67
:10253000030C9020404000010000FF0080601F005D
:102540000000FF0000000000804020180680000707
:102550001820408000000001002070282621202043
:10256000243860000101000000FE20202000F2124B
:102570001AD61212F2020000001F080402804F2037
:10258000180710204F80002020222222E22222223F
:10259000E2222222202000804020100C03000000B4
:1025A0003F404040407800404042CC0020D04C4B5F
:1025B00048C80808F800000000007F20101F121211
:1025C000125F80403F000020100CF3121252921252
:1025D0001212F20202000001011F1111111519510E
:1025E00091513F111101000000F888888888FF8808
:1025F000888888F800000000001F080808087F8805
:102600008888889F80F000106002CC8080FC402089
:10261000FF1008F800000004047E0100003F404065
:102620004F4044474078000000FE0282828282FAD6
:102630008282828282020080601F40404040407F50
:10264000404044584040002030AC63201880824213
:1026500022121A264280002267221212124042429F
:10266000427E42424240002030AC632018000848BD
:1026700048FF48484808002267221212120002024E
:1026800002FF0212221E0000000000000C12120CB9
:10269000000000000000000000000000000000003A
:1026A000000000000000000008F00808F00808F032
:1026B0000022312926000000000700000700000763
:1026C000000000000000002022A27E2222FE222222
:1026D000007C0000FF0000444249484848497E48C9
:1026E0004848494A414000808080BEA2A2A2A2A2DE
:1026F000A2A2BE80808000000000060504040444FD
:1027000084443C0000000000FE20203F2000FC2408
:10271000E4242223E20000807F0101FF80601F800B
:10272000412618264180000010101010D030FF30D4
:10273000D010101010000010080402090808FF084B
:1027400008090204081000484AFA0AFE09F949A8D3
:102750000000F00000FF0022110B04FF0409122307
:1027600000000F40807F0080804020504844C344D8
:10277000485020408080000040221A0242827F029E
:1027800002020A12600000100C442414040506041E
:1027900004142444140C00004040414141417F4155
:1027A0004141414040000000F8010600F0121212C1
:1027B000F2020202FE000000FF0000001F111111D2
:1027C0001F0040807F0000404042CC0000FC24A459
:1027D000242222A36200000040201F2058475048B6
:1027E000454245485040000000FE0202F21212121B
:1027F000F20202FE00000000007F20202724242493
:102800002720207F000000404042CC0000FF4949C3
:10281000C949497F8000000040201F20405F484494
:102820004041424558400000007C40404040FF404D
:10283000404040FC000000007C40404040407F4061
:1028400040404040FC000000FE225A86088868187C
:102850000FE8080808080000FF04080720110D41D0
:10286000817F010509300000FC848484FC0000FCA9
:10287000444444C2434200003F1010103F80601F98
:10288000000000FF00000000000000000000000049
:1028900000000000000000000000F8000000000040
:1028A0000000333000000000100C06100C06000081
:1028B0000000000000000040C07840C078400004E4
:1028C0003F04043F040400007088FC08300000004E
:1028D0001820FF211E0000F008F000E018000000A2
:1028E000211C031E211E0000F00888700000001E3D
:1028F0002123241927211010160E000000000000CB
:1029000000000000000000000000E01804020000C9
:102910000000071820400000020418E0000000003A
:1029200040201807000000404080F0804040000236
:1029300002010F01020200000000F000000000018F
:1029400001011F01010100000000000000000080E3
:10295000B070000000000000000000000000000057
:102960000101010101010100000000000000000060
:1029700030300000000000000000008060180400FB
:102980006018060100000000E010080810E00000D8
:102990000F102020100F00001010F80000000000A1
:1029A00020203F20200000007008080888700000E8
:1029B0003028242221300000300888884830000068
:1029C00018202020110E000000C02010F800000088
:1029D000070424243F240000F80888880808000021
:1029E00019212020110E0000E01088881800000036
:1029F0000F112020110E0000380808C83808000008
:102A000000003F0000000000708808088870000087
:102A10001C222121221C0000E010080810E0000008
:102A200000312222110F00000000C0C00000000091
:102A300000003030000000000000800000000000B6
:102A400000806000000000000080402010080000AE
:102A50000102040810200040404040404040000473
:102A60000404040404040000081020408000000056
:102A700020100804020100007048080808F0000057
:102A800000003036010000C030C828E810E0000720
:102A900018272423140B000000C038E00000002099
:102AA0003C23020227382008F8888888700000201C
:102AB0003F202020110E00C0300808080838000709
:102AC0001820202010080008F808080810E000204E
:102AD0003F202020100F0008F88888E80810002008
:102AE0003F20202320180008F88888E808100020DC
:102AF0003F200003000000C030080808380000072D
:102B0000182020221E020008F808000008F80820FB
:102B10003F210101213F20000808F80808000000BB
:102B200020203F2020000000000808F8080800C00E
:102B30008080807F00000008F888C02818080020E6
:102B40003F20012638200008F8080000000000207F
:102B50003F20202020300008F8F800F8F808002076
:102B60003F003F003F200008F830C00008F8082070
:102B70003F200007183F00E01008080810E0000F91
:102B800010202020100F0008F808080808F0002086
:102B90003F210101010000E01008080810E0000FCB
:102BA00018242438504F0008F8888888887000203E
:102BB0003F2000030C30200070880808083800000F
:102BC00038202121221C00180808F80808180000E5
:102BD00000203F2000000008F808000008F8080066
:102BE0001F202020201F000878880000C838080017
:102BF0000007380E010000F80800F80008F800038C
:102C00003C0700073C03000818688080681808200B
:102C1000302C03032C30200838C800C838080000C6
:102C200000203F2000000010080808C838080020D5
:102C300038262120201800000000FE0202020000B9
:102C400000007F40404000000C30C0000000000049
:102C50000000010638C00000020202FE0000000071
:102C60004040407F00000000000402020204000017
:102C700000000000000000000000000000000080D4
:102C800080808080808080000202040000000000BC
:102C90000000000000000000008080808000000034
:102CA00019242222223F2008F80080800000000022
:102CB0003F112020110E00000000808080000000E5
:102CC0000E112020201100000000808088F80000F4
:102CD0000E112020103F2000008080808000000026
:102CE0001F222222221300008080F088888818008A
:102CF00020203F2020000000008080808080000095
:102D00006B94949493600008F80080808000002009
:102D10003F210000203F2000809898000000000024
:102D200020203F2020000000000080989800000034
:102D3000C08080807F000008F80000808080002034
:102D40003F24022D302000000808F8000000000099
:102D500020203F2020000080808080808080002014
:102D60003F20003F20003F808000808080000020C6
:102D70003F210000203F2000008080808000000074
:102D80001F202020201F0080800080800000008005
:102D9000FFA12020110E0000000080808080000034
:102DA0000E112020A0FF8080808000808080002085
:102DB000203F2120000100000080808080800000F2
:102DC00033242424241900008080E0808000000047
:102DD00000001F2020000080800000008080000094
:102DE0001F202020103F20808080000080808000F5
:102DF000010E300806010080800080008080800F76
:102E0000300C030C300F00008080008080800000B8
:102E100020312E0E31200080808000008080808054
:102E2000818E701806010000808080808080000004
:102E300021302C2221300000000000807C020200A2
:102E4000000000003F404000000000FF00000000C4
:102E5000000000FF0000000002027C800000000073
:102E600040403F000000000006010102020404008F
:102E700000000000000000000080C0E0F0F8FCF856
:102E8000F0E0C0800000000000000103070F1F0FEA
:102E90000703010000000000B82E00080000002019
:102EA00054000000280100080C2F000854000020E6
:102EB0002C0700004401000800A24A0400000000A2
:102EC00000000000010203040607080900000000DA
:102ED00000000000000001000101000418300000A3
:102EE0006E00000000000000000000000000000074
:102EF00000000000000000000000000000000000D2
:0C2F0000000000000000000000000000C5
:04000005080001915D
:00000001FF
